:100000000C94FE000C9426010C9426010C94E2053D
:100010000C94E2050C94E2050C9426010C94260144
:100020000C9426010C9426010C9426010C942601B4
:100030000C9426010C9426010C9426010C942601A4
:100040000C9498050C9426010C9475040C944F04A0
:100050000C9426010C9426010C9426010C94260184
:100060000C9426010C9426014E414E494E49545998
:10007000494E46CDCCCC3D0AD7233C17B7D1387773
:10008000CC2B329595E6241FB14F0A000020410089
:1000900000C84200401C4620BCBE4CCA1B0E5AAED3
:1000A000C59D7400407A10F35A00A0724E180900E2
:1000B00010A5D4E80000E87648170000E40B5402CD
:1000C0000000CA9A3B000000E1F505000080969808
:1000D00000000040420F000000A086010000001058
:1000E0002700000000E8030000000064000000009A
:1000F000000A00000000000100000000002C76D87B
:1001000088DC674F0823DFC1DFAE59E1B1B796E560
:10011000E3E453C63AE651997696E8E6C28426EBC4
:10012000898C9B62ED407C6FFCEFBC9C9F40F2BAD7
:10013000A56FA5F490055A2AF75C936B6CF9676D6F
:10014000C11BFCE0E40D47FEF520E6B500D0ED90C4
:100150002E0300943577050080841E080000204E91
:100160000A000000C80C333333330F986E1283112A
:1001700041EF8D2114893BE65516CFFEE6DB18D101
:10018000844B381BF77C1D901DA4BBE424203284D3
:10019000725E228100C9F124ECA1E53D2700000038
:1001A0000800020100000304070000000000000036
:1001B0000000000000240027002A000000000025A5
:1001C0000028002B00000000002300260029000466
:1001D00004040404040404020202020202030303EE
:1001E00003030301020408102040800102040810E8
:1001F00020010204081020008D125E1211241FBE7F
:10020000CFEFD8E0DEBFCDBF25E0A0EFB3E001C067
:100210001D92AA3CB207E1F713E0A0E0B1E0E2EDE5
:10022000FAE302C005900D92A03FB107D9F710E0A4
:10023000CDEFD0E004C02197FE010E94251BCC3FEA
:10024000D107C9F70E94D10B0C945C1D0C940000DF
:10025000FC01248135816217730720F4808191812C
:10026000009729F41092750485E794E00895860FAD
:10027000971F08950895CF92DF92EF92FF920F9308
:100280001F93CF93DF936C017A018B01C0E0D0E024
:10029000CE15DF0589F0D8016D918D01D601ED9164
:1002A000FC910190F081E02DC6010995892B11F494
:1002B0007E0102C02196ECCFC701DF91CF911F9143
:1002C0000F91FF90EF90DF90CF9008953FB7F89493
:1002D0008091710490917204A0917304B0917404A0
:1002E00026B5A89B05C02F3F19F00196A11DB11D91
:1002F0003FBFBA2FA92F982F8827820F911DA11DCC
:10030000B11DBC01CD0142E0660F771F881F991F08
:100310004A95D1F708952091F2033091F3032817FD
:10032000390771F49091F0038091F103981741F02F
:10033000E091F003F0E0E45DFB4F808190E00895F0
:100340008FEF9FEF089508951F93CF93DF93DC0104
:100350005C962D913C915D972115310539F481E032
:1003600090E013969C938E9312973DC05196ED9119
:10037000FC91529750969C915097892F80951FB76A
:100380005E964C915E9741FB772770F941FD609531
:10039000F8944081772311F0492B01C04823408312
:1003A000E9012197F1F748E0508160FF02C0592B25
:1003B00001C058235083E9012197F1F76695415018
:1003C00099F7772321F090818923808303C080816E
:1003D000982B90831FBF5C968D919C915D970197A0
:1003E000F1F721E030E0C901DF91CF911F9108952D
:1003F0002091F2033091F3032817390771F48091AB
:10040000F1032091F00390E0805C9F4F821B9109E3
:1004100060E470E00E94BC1A089580E090E00895C6
:100420002091F2033091F30328173907B9F4909122
:10043000F0038091F103981789F0E091F003F0E068
:10044000E45DFB4F80812091F00330E02F5F3F4F50
:100450002F7333272093F00390E008958FEF9FEFE1
:100460000895089580E090E008950E94221D82ED95
:1004700094E00E94520821E0892B09F420E0822FA9
:1004800008950F931F93CF93DF938C01EB01FC0131
:10049000808191810097B1F0688179816115710542
:1004A00079F0428153812C813D814217530740F0FE
:1004B0000E943B1D8C819D81F8019583848313C02C
:1004C0000E94C01B88819981F801918380838A8171
:1004D0009B81938382838C819D8195838483198200
:1004E00018821B821A821D821C82DF91CF911F917C
:1004F0000F9108950F931F93CF93DF93EC018881A1
:100500009981009729F02A813B812617370788F4C3
:100510008B016F5F7F4F0E94581C009761F0998399
:1005200088831B830A832C813D81232B11F4FC01DA
:10053000108281E001C080E0DF91CF911F910F9187
:100540000895EF92FF920F931F93CF93DF93EC01E7
:100550007B018A01BA010E947A02288139818111C6
:100560000DC02115310519F0C9010E94C01B198267
:1005700018821D821C821B821A8206C01D830C8376
:10058000B701C9010E943B1DCE01DF91CF911F91A0
:100590000F91FF90EF900895CF93DF93EC016115D9
:1005A000710559F0FB0101900020E9F73197AF0187
:1005B000461B570B0E94A1020CC0888199810097AD
:1005C00011F00E94C01B198218821D821C821B829E
:1005D0001A82CE01DF91CF910895FC018081918133
:1005E0000C94C01BFC0111821082138212821582AE
:1005F00014826115710551F0FB0101900020E9F7AB
:100600003197AF01461B570B0C94A1020895611559
:10061000710579F0FB0101900020E9F73197AF01F6
:10062000461B570BDC01ED91FC910280F381E02D1C
:10063000099480E090E008954F925F926F927F92CC
:10064000EF92FF920F931F93CF93DF93CDB7DEB757
:10065000A1970FB6F894DEBF0FBECDBF7C01FA01A3
:10066000CB0119A2223008F42AE08E010F5D1F4F42
:10067000422E512C612C712CBF01A30192010E94CA
:10068000D01AF901CA01015011096A3014F4605DF1
:1006900001C0695CD8016C93232B242B252B61F7B7
:1006A000B801C7010E940703A1960FB6F894DEBFF8
:1006B0000FBECDBFDF91CF911F910F91FF90EF90B3
:1006C0007F906F905F904F9008954F925F926F92DE
:1006D0007F928F929F92AF92BF92CF92DF92EF92D2
:1006E000FF92CF93DF93EC016A017B01B22E9A0156
:1006F000AB01C701B6010E94A21A882319F06CE869
:1007000073E027C026013701E89477F82FEF3FEF19
:100710004FE75FE7C301B2010E94A21A81110DC029
:100720002FEF3FEF4FE75FE7C301B2010E94D11700
:1007300018161CF460E973E00CC02FEF3FEF4FE791
:100740005FE4C701B6010E94571A18169CF464E9C9
:1007500073E0CE01DF91CF91FF90EF90DF90CF90CB
:10076000BF90AF909F908F907F906F905F904F90D1
:100770000C9407032FEF3FEF4FE75FECC701B60183
:100780000E94D11787FDE3CF20E030E0A901C70127
:10079000B6010E94D11787FF0EC0E881F981019050
:1007A000F081E02D6DE2CE0109954C01F7FAF0944D
:1007B000F7F8F09402C0812C912CA12C60E070E03D
:1007C00080E09FE3AB1440F420E030E040E251E4ED
:1007D0000E94B619A394F6CF9B01AC01C701B601E4
:1007E0000E944A192B013C010E94281A6B017C01CE
:1007F0000E94D6179B01AC01C301B2010E944919A6
:100800002B013C012AE0B701A601CE010E941C0386
:100810007C01E80CF91CBB2051F0E881F9810190C2
:10082000F081E02D6EE2CE010995E80EF91EDB2C79
:10083000DD2029F120E030E040E251E4C301B201C3
:100840000E9437182B013C010E94281A4B01A12C51
:10085000B12C2AE0B501A401CE010E941C03E80ED0
:10086000F91EC501B4010E94D6179B01AC01C3015A
:10087000B2010E9449192B013C01DA94D9CFC7017A
:10088000DF91CF91FF90EF90DF90CF90BF90AF902E
:100890009F908F907F906F905F904F9008951F92E0
:1008A0000F920FB60F9211242F933F934F935F93A4
:1008B0006F937F938F939F93AF93BF93EF93FF9328
:1008C00082ED94E00E94470BFF91EF91BF91AF91B1
:1008D0009F918F917F916F915F914F913F912F9158
:1008E0000F900FBE0F901F9018951F920F920FB68A
:1008F0000F9211242F938F939F93EF93FF93E09187
:10090000E204F091E3048081E091E804F091E904CD
:1009100082FD12C090818091EB048F5F8F732091D4
:10092000EC04821751F0E091EB04F0E0EE52FB4F43
:10093000958F8093EB0401C08081FF91EF919F918F
:100940008F912F910F900FBE0F901F9018958330AD
:1009500081F028F4813099F08230A1F00895873039
:10096000A9F08830B9F08430D1F4809180008F7D77
:1009700003C0809180008F7780938000089584B5B4
:100980008F7702C084B58F7D84BD08958091B000BB
:100990008F7703C08091B0008F7D8093B000089561
:1009A0001F93CF93DF93282F30E0F901E356FE4FDA
:1009B0008491F901ED51FE4FD491F901E153FE4FBD
:1009C000C491CC23C9F0162F81110E94A704EC2FEB
:1009D000F0E0EE0FFF1FE554FE4FA591B4918FB7E5
:1009E000F894111105C09C91ED2FE095E92302C008
:1009F000EC91ED2BEC938FBFDF91CF911F91089578
:100A0000CF93DF93EC0160E08E810E94D00461E01F
:100A10008E810E94D00460E08E810E94D0048BE819
:100A200091E00197F1F7DF91CF910895CF93DF9394
:100A300090E0FC01ED51FE4F2491FC01E153FE4F8B
:100A40008491882361F190E0880F991FFC01EF5495
:100A5000FE4FC591D491FC01E554FE4FA591B49190
:100A6000611109C09FB7F8948881209582238883FB
:100A7000EC912E230BC0623061F49FB7F89438815B
:100A8000822F809583238883EC912E2B2C939FBFFC
:100A900006C08FB7F894E8812E2B28838FBFDF9193
:100AA000CF9108958F929F92AF92BF92CF92DF9293
:100AB000EF92FF926B017C010E9466014B015C0189
:100AC000C114D104E104F104F1F00E946601DC01DB
:100AD000CB0188199909AA09BB09883E9340A10551
:100AE000B10570F321E0C21AD108E108F10888EEDF
:100AF000880E83E0981EA11CB11CC114D104E1042E
:100B0000F10419F7DDCFFF90EF90DF90CF90BF9009
:100B1000AF909F908F9008952FB7F89460916D04D7
:100B200070916E0480916F04909170042FBF0895AE
:100B30001F920F920FB60F9211242F933F938F9312
:100B40009F93AF93BF9380916D0490916E04A09199
:100B50006F04B091700430916C0423E0230F2D37A3
:100B600020F40196A11DB11D05C026E8230F0296B1
:100B7000A11DB11D20936C0480936D0490936E04AD
:100B8000A0936F04B09370048091710490917204EB
:100B9000A0917304B09174040196A11DB11D8093BE
:100BA000710490937204A0937304B0937404BF9182
:100BB000AF919F918F913F912F910F900FBE0F900A
:100BC0001F9018951F920F920FB60F9211242F931A
:100BD0003F934F935F936F937F938F939F93AF93C5
:100BE000BF93EF93FF93E091F203F091F3033097FB
:100BF00009F451C0968DA685B785858591FF04C0FF
:100C00009C91892329F447C09C91892309F043C012
:100C1000A389B4899C918589809589238C93868941
:100C200097890197F1F7608D718DA685B7855585F8
:100C300038E020E0CB010197F1F7822F90E0959505
:100C40008795282F4C91452309F02068315091F762
:100C5000868D81FD20958091F10390E001968F7340
:100C600099273091F003381749F0A091F103B0E0D3
:100C7000A45DBB4F2C938093F10303C0868D8160EC
:100C8000868F828D938D0197F1F7A389B4899C910A
:100C90008589892B8C93FF91EF91BF91AF919F91A3
:100CA0008F917F916F915F914F913F912F910F9015
:100CB0000FBE0F901F901895CF92DF92EF92FF9288
:100CC0000F931F93CF93DF937C016C0187E0C80ED5
:100CD000D11CC0E0D0E0062F10E0B8010C2E02C0FD
:100CE000759567950A94E2F76170F60181916F013D
:100CF0000E94D0042196C430D10579F7C701DF9155
:100D0000CF911F910F91FF90EF90DF90CF900C94B7
:100D10000005CF92DF92EF92FF920F931F93CF9334
:100D2000DF93EC01F62E642F8C810E94D0048D811C
:100D30008F3F19F060E00E94D0048F850F2D10E0E6
:100D400084FF25C06E0187E0C80ED11CE12CF12C78
:100D5000B8010E2C02C0759567950A94E2F7617090
:100D6000F60181916F010E94D004FFEFEF1AFF0A94
:100D700088E0E816F10461F7CE01DF91CF911F9171
:100D80000F91FF90EF90DF90CF900C940005B80189
:100D900084E0759567958A95E1F7CE010E945C061F
:100DA0006F2DCE01DF91CF911F910F91FF90EF90AA
:100DB000DF90CF900C945C0641E00E94890681E0B0
:100DC00090E0089540E00C94890661E00E94E206FC
:100DD0008BE39FE10197F1F7089580912B0488231D
:100DE00041F06BEF73E08EEB95E00E94CC02109225
:100DF0002B040895CF93DF93C1E0DFE287E895E00D
:100E00000E94F801181619061CF580912B04811117
:100E10001FC087E895E00E941002E091FA038A3033
:100E200071F0AE2FB0E0A550BC4F8C93EF5FE03374
:100E300018F4E093FA03E2CFD093FA03DFCFF0E0A7
:100E4000E550FC4F10821092FA03C0932B04D6CFCA
:100E5000DF91CF9108950F931F93CF93DF938C0170
:100E6000C0E0D0E0F80184819581C817D90700F56A
:100E7000BE01C8010E942801BE01C8010E942801CC
:100E8000BE01C8010E942801BE01C8010E942801BC
:100E9000BE01C8010E942801BE01C8010E942801AC
:100EA000FC0160818FE695E00E94DC062196DACF96
:100EB000DF91CF911F910F9108950F931F93CF93BF
:100EC000DF9300D000D000D0CDB7DEB702E010E055
:100ED0008FE695E00E94E50660E080E00E94370919
:100EE00068E973E0CE0101960E94F202CE010196FC
:100EF0000E942B07CE0101960E94ED026DEC71E07D
:100F000080E090E00E94520560E085E00E94370991
:100F100068E973E0CE0101960E94F202CE010196CB
:100F20000E942B07CE0101960E94ED026DEC71E04C
:100F300080E090E00E94520561E085E00E94370960
:100F40006DE973E0CE0101960E94F202CE01019696
:100F50000E942B07CE0101960E94ED026BE973E01F
:100F600080E090E00E9452058FE695E00E94E50641
:100F700060E081E00E94370968EA73E0CE010196E3
:100F80000E94F202CE0101960E942B07CE0101962B
:100F90000E94ED0261E082E00E94370968EB73E095
:100FA000CE0101960E94F202CE0101960E942B070B
:100FB000CE0101960E94ED0266E377E080E090E0CA
:100FC0000E9452058FE695E00E94E50660E080E011
:100FD0000E94370964EC73E0CE0101960E94F20290
:100FE000CE0101960E942B07CE0101960E94ED02D0
:100FF00061E083E00E94370964ED73E0CE01019661
:101000000E94F202CE0101960E942B07CE010196AA
:101010000E94ED026CE67EE080E090E00E945205C6
:101020000130110519F001E010E052CF26960FB6FD
:10103000F894DEBF0FBECDBFDF91CF911F910F910E
:101040000895FC01538D448D252F30E0842F90E0CE
:10105000821B930B541710F0CF96089501970895B3
:10106000FC01918D828D981761F0828DDF01A80FB0
:10107000B11D5D968C91928D9F5F9F73928F90E0D2
:1010800008958FEF9FEF0895FC01918D828D981741
:1010900031F0828DE80FF11D858D90E008958FEF7E
:1010A0009FEF0895FC01918D228D892F90E0805C47
:1010B0009F4F821B91098F739927089580E090E0DC
:1010C000892B29F00E94370281110C9400000895A9
:1010D0000F931F93CF93DF932091B6053091B705FF
:1010E000009711F480E020C061157105E1F08C01DA
:1010F000EB01C20FD31FBE0182EB95E00E947A0282
:10110000882381F32091B2053091B3058091B60513
:101110009091B705B801820F931F0E943B1DD09399
:10112000B705C093B60581E0DF91CF911F910F9174
:101130000895EF92FF920F931F93CF93DF93EC01EB
:10114000623018F08F8588608F876B8B1C8A80E4F3
:101150008D8B80E18E8B80E58F8B61E08C810E948E
:1011600016058D818F3F19F061E00E94160561E040
:101170008E810E9416057E0187E0E80EF11C00E0DA
:1011800010E08F8584FD03C084E090E002C088E019
:1011900090E0081719074CF461E0F70181917F0195
:1011A0000E9416050F5F1F4FECCF8BE39DE0019768
:1011B000F1F760E08C810E94D00460E08E810E9493
:1011C000D0048D818F3F19F060E00E94D0046F85BC
:1011D00064FD1DC063E0CE010E945C060BE416E4D2
:1011E000C8010197F1F763E0CE010E945C06C801D7
:1011F0000197F1F763E0CE010E945C0683E592E07F
:101200000197F1F762E0CE010E945C0616C06062B1
:10121000CE010E94E2068BE496E40197F1F76F8518
:101220006062CE010E94E20683E592E00197F1F749
:101230006F856062CE010E94E2066F856062CE011A
:101240000E94E20684E0888B6CE0CE010E94E206F8
:10125000CE010E94E50682E0898B66E0CE01DF9137
:10126000CF911F910F91FF90EF900C94E2066430A4
:1012700008F063E090918205691710F06FEF690F35
:10128000E62FF0E0E159FA4F9489682F690F606802
:101290008FE695E00C94E2066CEE73E087E895E04B
:1012A0000C940703CF93DF93BC0187E895E00E947D
:1012B0000703EC010E944C098C0F9D1FDF91CF9119
:1012C0000895EF92FF920F931F93CF93DF931F9296
:1012D000CDB7DEB7162F877028E0829FC00111249A
:1012E000682F60648FE695E079830E94E206E12E24
:1012F0007981F72E8701085F1F4FF70161917F0108
:101300008FE695E00E94DC06E016F106B1F70F903B
:10131000DF91CF911F910F91FF90EF900895CF93A0
:10132000DF93E2EBF5E0448155816081718187E8CC
:1013300095E00E943B01EC010E944C098C0F9D1F1F
:10134000DF91CF910895009751F0FC0101900020AA
:10135000E9F73197BF01681B790B0C94680880E0AE
:1013600008950F931F93CF93DF93CDB7DEB76497A4
:101370000FB6F894DEBF0FBECDBF8E010F5F1F4FBB
:1013800022E044E00E948D13FC0101900020E9F767
:101390003197BF01681B790B0E94680864960FB6ED
:1013A000F894DEBF0FBECDBFDF91CF911F910F919B
:1013B00008954F925F926F927F928F929F92AF9219
:1013C000BF92CF92DF92EF92FF92CF93DF938EE4A2
:1013D00080937C0062E070E080E090E00E94520523
:1013E00080917A00806480937A0080917A0086FDF3
:1013F000FCCF809178002091790030E0322F2227B5
:10140000A901330F660B770B9A01AB01282B60E023
:1014100070E381E190E00E94F21A69017A01C8EC60
:10142000D5E080918C048E3008F08E5087708064F7
:1014300080937C0080917A00806480937A00809110
:101440007A0086FDFCCF809178002091790090E0B1
:10145000BC01722B70939D0460939C04072E000CBA
:10146000880B990B0E94D8174B015C014090AE0489
:101470005090AF046090B0047090B104A301920149
:101480000E94491920E030E040E85AE30E943718F2
:101490009B01AC01C301B2010E944A199B01AC013E
:1014A0006093AE047093AF048093B0049093B10442
:1014B000C501B4010E9449196093A6047093A70462
:1014C0008093A8049093A9049B01AC010E94371853
:1014D0006093BE047093BF048093C0049093C104D2
:1014E0002091C2043091C3044091C4045091C504BA
:1014F0000E944A196093C2047093C3048093C40489
:101500009093C504219709F08CCF20E030E049EB9F
:1015100054E40E94B6190E94621A4B015C01B601A4
:10152000DD0C880B990B0E94D81720E030E04AE7C9
:1015300054E40E94B61920E030E040E85AE30E94EB
:101540003718209192043091930440919404509163
:1015500095040E943718A50194010E9437186093E2
:101560008604709387048093880490938904109272
:10157000C2041092C3041092C4041092C504DF91F7
:10158000CF91FF90EF90DF90CF90BF90AF909F9062
:101590008F907F906F905F904F900895DF92EF92C1
:1015A000FF920F931F93CF93DF937C018B01EA018E
:1015B0004617570720F4812F8A01C62FD82F6EEEC9
:1015C00073E0C7010E94F2028091C2059091C305A9
:1015D00008171907E0F48C179D0708F4EC01E09157
:1015E000BE05F091BF05EC0FFD1FD0801082609109
:1015F000BE057091BF05600F711FC7010E94CC022C
:10160000E091BE05F091BF05EC0FFD1FD082C70130
:10161000DF91CF911F910F91FF90EF90DF90089590
:10162000CF93DF932091C2053091C305232B79F02E
:10163000FC01C091BE05D091BF0560817181CE01D2
:101640000E94421D009719F08C1B9D0B02C08FEF6A
:101650009FEFDF91CF910895CF93DF938091C205E3
:101660009091C305892B71F0C091BE05D091BF0543
:101670006DE070E0CE010E94301D009719F08C1BC8
:101680009D0B02C08FEF9FEFDF91CF910895FC017A
:10169000848DDF01A80FB11DA35ABF4F2C91848DFB
:1016A00090E001968F739927848FA689B7892C9330
:1016B000A089B1898C9180648C93938D848D9813CB
:1016C00006C00288F389E02D80818F7D8083089594
:1016D000EF92FF920F931F93CF93DF93EC0181E082
:1016E000888F9B8D8C8D981305C0E889F98980813E
:1016F00085FD24C0F62E0B8D10E00F5F1F4F0F737A
:101700001127E02E8C8DE8120CC00FB607FCFACF23
:10171000E889F989808185FFF5CFCE010E94470BCA
:10172000F1CF8B8DFE01E80FF11DE35AFF4FF082E0
:101730000B8FEA89FB898081806207C0EE89FF896F
:101740006083E889F98980818064808381E090E00A
:10175000DF91CF911F910F91FF90EF900895CF935C
:10176000DF93EC01888D8823C9F0EA89FB898081A9
:1017700085FD05C0A889B9898C9186FD0FC00FB67B
:1017800007FCF5CF808185FFF2CFA889B9898C91BC
:1017900085FFEDCFCE010E94470BE7CFDF91CF91C0
:1017A0000895CF93DF93CDB7DEB76C970FB6F8945B
:1017B000DEBF0FBECDBF789484B5826084BD84B592
:1017C000816084BD85B5826085BD85B5816085BD3C
:1017D00080916E00816080936E00109281008091F4
:1017E000810082608093810080918100816080937C
:1017F0008100809180008160809380008091B100A1
:1018000084608093B1008091B00081608093B000CB
:1018100080917A00846080937A0080917A0082605F
:1018200080937A0080917A00816080937A00809121
:101830007A00806880937A001092C10060E08BE0AB
:101840000E94160560E271E080E00E94610968E193
:1018500071E081E00E94610960E171E082E00E9434
:10186000610968E071E083E00E94610960E071E075
:1018700084E00E94610962E08FE695E00E94990889
:1018800060E086E00E9437096FEC72E08FE695E039
:101890000E94070361E083E00E94370965E671E07A
:1018A000CE0101960E94F202CE0101960E942B0702
:1018B000CE0101960E94ED028091290190912A01AA
:1018C000A0912B01B0912C0110928D0410928C04E8
:1018D0008093920490939304A0939404B0939504FE
:1018E00080E090E0A0E0B4E48093AE049093AF0475
:1018F000A093B004B093B1041092A2051092A10578
:101900001092A00510929F0510929E0510929D05C1
:101910008DE991E09093A4058093A30590919305A0
:10192000963108F057C02DEB30E030939E052093A0
:101930009D052BE931E03093A00520939F052CE213
:1019400031E03093A2052093A105209168009830E2
:1019500050F031E09E3008F430E081E001C0880FA3
:101960003A95EAF701C084E0822B809368009830B2
:1019700038F09E3040F0963148F020E030E008C06A
:101980002DE630E005C02BE630E002C02CE630E06A
:1019900030939B0520939A05983030F481E001C084
:1019A000880F9A95EAF70EC0292F30E09E3018F480
:1019B0002850310902C02E50310981E001C0880F42
:1019C0002A95EAF780939C058091A3059091A40540
:1019D0000197F1F78091A1059091A205892B49F11A
:1019E000E091F203F091F30325E0E738F20709F103
:1019F000309739F0A389B4899C9185898095892392
:101A00008C938091A5058E7F8093A5051092F1039C
:101A10001092F00387E895E09093F3038093F2032C
:101A2000E0919A05F0919B05908180919C05892B0E
:101A3000808381E791E00E9452091092280111E011
:101A40002AED222E21E0322E0E948C056D877E87A2
:101A50008F87988B0E94D9094B015C0160912D0101
:101A600070912E01072E000C880B990B0E94D8173D
:101A70009B01AC01C501B4010E943718698B7A8BB8
:101A80008B8B9C8B68E771E082EB95E00E94CC0227
:101A9000C501B4010E94B1098DE891E00E94A3093B
:101AA00069897A898B899C890E94B1098CE991E0C6
:101AB0000E94A3090E948F090E94FA060E94ED0667
:101AC0006FE971E0CE0101960E94F202CE0101960B
:101AD0000E94100B7C01CE0101960E94ED02EF20C6
:101AE000E09409F44CC00E942C0B7C016FE971E07A
:101AF000CE0107960E94F202CE0107960E94100BBB
:101B0000BC016E5F7F4FA701CE0101960E94CE0AF5
:101B1000BE016F5F7F4F8CEA95E00E944102CE01CB
:101B200001960E94ED02CE0107960E94ED020E94EE
:101B30004C0962EA71E087E895E00E940703409152
:101B4000B0055091B1056091AC057091AD0587E885
:101B500095E00E943B018DE991E00E94520980913D
:101B6000AC059091AD05009719F00E94B11303C028
:101B700060E070E0CB0170932E0160932D0165EB66
:101B800071E0CE0101960E94F202CE0101960E9400
:101B9000100B7C01CE0101960E94ED02EF20E09433
:101BA00009F452C00E942C0B7C0165EB71E0CE0160
:101BB00007960E94F202CE0107960E94100BBC010C
:101BC000685F7F4FA701CE0101960E94CE0ABE0139
:101BD0006F5F7F4F86EA95E00E944102CE01019639
:101BE0000E94ED02CE0107960E94ED020E944C0970
:101BF0006EEB71E087E895E00E94070340912901B0
:101C000050912A0160912B0170912C0122E030E06B
:101C100087E895E00E9465038DE991E00E945209F2
:101C20008091A6059091A705009719F00E94AD1329
:101C300003C060E070E0CB016093290170932A013A
:101C400080932B0190932C0162ED71E0CE010196FF
:101C50000E94F202CE0101960E94100B7C01CE017F
:101C600001960E94ED02EF20E09409F4E5C2109382
:101C700028018FE695E00E94E5060E944C098CED54
:101C800091E00E94520965E070E080E090E00E94DF
:101C900052058CED91E00E94520965E070E080E011
:101CA00090E00E9452058CED91E00E9452096DEC8B
:101CB00071E080E090E00E9452050E945D078FE68F
:101CC00095E00E94E50660E080E00E94370964EF3D
:101CD00071E0CE0101960E94F202CE0101960E94AF
:101CE0002B07CE0101960E94ED026CE178E080E0C6
:101CF00090E00E9452058FE695E00E94E50660E0C4
:101D000080E00E94370964E072E0CE0101960E94F3
:101D1000F202CE0101960E942B07CE0101960E948D
:101D2000ED026FE476E080E090E00E9452058FE6DD
:101D300095E00E94E50660E080E00E94370966E1D8
:101D400072E0CE0101960E94F202CE0101960E943D
:101D50002B07CE0101960E94ED0266E377E080E05A
:101D600090E00E9452058FE695E00E94E50660E053
:101D700083E00E94370966E272E0CE0101960E947C
:101D8000F202CE0101960E942B07CE0101960E941D
:101D9000ED0261E083E00E94370961E372E0CE0169
:101DA00001960E94F202CE0101960E942B07CE01FD
:101DB00001960E94ED026CE178E080E090E00E94E4
:101DC00052058FE695E00E94E50660E085E00E94FE
:101DD00037096BE372E0CE0101960E94F202CE0158
:101DE00001960E942B07CE0101960E94ED0261E050
:101DF00082E00E94370961E472E0CE0101960E9400
:101E0000F202CE0101960E942B07CE0101960E949C
:101E1000ED0266E377E080E090E00E9452058FE6F5
:101E200095E00E94E50660E082E00E9437096EE4DA
:101E300072E0CE0101960E94F202CE0101960E944C
:101E40002B07CE0101960E94ED0261E083E00E9423
:101E500037096CE572E0CE0101960E94F202CE01D4
:101E600001960E942B07CE0101960E94ED026FE4BD
:101E700076E080E090E00E9452058FE695E00E94B7
:101E8000E50660E080E00E94370966E672E0CE0178
:101E900001960E94F202CE0101960E942B07CE010C
:101EA00001960E94ED0266E377E080E090E00E94F8
:101EB00052058FE695E00E94E50660E081E00E9411
:101EC000370966E772E0CE0101960E94F202CE0168
:101ED00001960E942B07CE0101960E94ED0261E05F
:101EE00081E00E94370966E872E0CE0101960E9407
:101EF000F202CE0101960E942B07CE0101960E94AC
:101F0000ED026CE178E080E090E00E9452058FE6FF
:101F100095E00E94E50660E080E00E94370965E9EF
:101F200072E0CE0101960E94F202CE0101960E945B
:101F30002B07CE0101960E94ED026FE476E080E06F
:101F400090E00E9452058FE695E00E94E50660E071
:101F500080E00E94370966EA72E0CE0101960E9495
:101F6000F202CE0101960E942B07CE0101960E943B
:101F7000ED0261E083E00E94370966EB72E0CE017A
:101F800001960E94F202CE0101960E942B07CE011B
:101F900001960E94ED0266E377E080E090E00E9407
:101FA00052058FE695E00E94E50660E083E00E941E
:101FB000370960EC72E0CE0101960E94F202CE0178
:101FC00001960E942B07CE0101960E94ED0261E06E
:101FD00084E00E9437096BEC72E0CE0101960E940A
:101FE000F202CE0101960E942B07CE0101960E94BB
:101FF000ED0266E377E080E090E00E9452058FE614
:1020000095E00E94E50660E083E00E94370964EDF8
:1020100072E0CE0101960E94F202CE0101960E946A
:102020002B07CE0101960E94ED0261E083E00E9441
:1020300037096FED72E0CE0101960E94F202CE01E7
:1020400001960E942B07CE0101960E94ED0266E3E5
:1020500077E080E090E00E9452058FE695E00E94D4
:10206000E50660E082E00E9437096AEE72E0CE0188
:1020700001960E94F202CE0101960E942B07CE012A
:1020800001960E94ED0261E082E00E94370966EF4E
:1020900072E0CE0101960E94F202CE0101960E94EA
:1020A0002B07CE0101960E94ED0263E079E080E00B
:1020B00090E00E9452058FE695E00E94E50660E000
:1020C00081E00E94370961E073E0CE0101960E9431
:1020D000F202CE0101960E942B07CE0101960E94CA
:1020E000ED0268E675E080E090E00E9452058FE620
:1020F00095E00E94E50660E083E00E94370960E118
:1021000073E0CE0101960E94F202CE0101960E9478
:102110002B07CE0101960E94ED0261E082E00E9451
:1021200037096CE173E0CE0101960E94F202CE0104
:1021300001960E942B07CE0101960E94ED0266E3F4
:1021400077E080E090E00E9452058FE695E00E94E3
:10215000E50660E082E00E94370969E273E0CE01A3
:1021600001960E94F202CE0101960E942B07CE0139
:1021700001960E94ED0261E086E00E9437096FEC53
:1021800072E0CE0101960E94F202CE0101960E94F9
:102190002B07CE0101960E94ED0266E377E080E016
:1021A00090E00E9452050E945D0793E0E92EF12C19
:1021B0006DED73E08FE695E00E9407036DEC71E032
:1021C00080E090E00E94520581E0E81AF10881F772
:1021D0008FE695E00E94E50660E084E00E94370902
:1021E00066E373E0CE0101960E94F202CE010196F1
:1021F0000E942B07CE0101960E94ED0261E080E073
:102200000E94370960E473E0CE0101960E94F20259
:10221000CE0101960E942B07CE0101960E94ED028D
:1022200064E47BE280E090E00E9452058FE695E056
:102230000E94E50610922801E8EAF1E08491EEEEB2
:10224000F1E0F490F101E490EE20A1F081110E9400
:10225000A704EE2DF0E0EE0FFF1FEB53FE4FA5910C
:10226000B4918C91F82231E020E009F430E0832F22
:10227000922F02C080E090E09093F9038093F803DE
:10228000019709F459C0109228016EEE73E08EEBAD
:1022900095E00E94CC028091F4039091F503A09107
:1022A000F603B091F7032D853E854F855889281B8D
:1022B000390B4A0B5B0B283C31054105510508F4ED
:1022C000FAC02D853E854F8558892093F4033093BD
:1022D000F5034093F6035093F70360E080E00E941B
:1022E000370966E773E08FE695E00E94070361E037
:1022F00080E00E94370961E873E08FE695E00E9474
:10230000070360E08AE00E94370922E030E0B5016F
:10231000A4018FE695E00E94650361E08AE00E94D7
:10232000370921E030E049895A896B897C898FE639
:1023300095E00E946503BFC08FE695E00E94E50628
:1023400082E593E00E94520966E970E080E090E047
:102350000E9452050E94FA060E94ED0666E573E0AF
:10236000CE0101960E94F202CE0101960E94100B4E
:102370007C01CE0101960E94ED02EF20E09451F124
:102380000E942C0B7C0166E573E0CE0107960E944B
:10239000F202CE0107960E94100BBC016D5F7F4FC9
:1023A000A701CE0101960E94CE0ABE016F5F7F4F4A
:1023B00088EB95E00E944102CE0101960E94ED0259
:1023C000CE0107960E94ED02109328018FE695E05A
:1023D0000E94E5060E948C056D8B7E8B8F8B988FFB
:1023E0000E948C056B017C018D899E89AF89B88D17
:1023F000C81AD90AEA0AFB0A99EBC9169BE0D90662
:10240000E104F10408F03FCF0E948C056B017C01D0
:1024100060E080E00E9437096AE573E08FE695E0AE
:102420000E94070361E080E00E9437094091BC05EB
:102430005091BD056091B8057091B9058FE695E0A2
:102440000E943B010E948C050E94D9092B013C018E
:1024500060912D0170912E01072E000C880B990BB5
:102460000E94D8179B01AC01C301B2010E9437182A
:10247000698F7A8F8B8F9C8F68E771E082EB95E094
:102480000E94CC02C301B2010E94B10988E693E028
:102490000E94A309698D7A8D8B8D9C8D0E94B10954
:1024A0008CE991E00E94A3090E948F090E94FA061C
:1024B0000E94ED0699CF0E945E08C6CA87E591E0AA
:1024C00090938805809387058091F2039091F303A0
:1024D0008758954071F4E0919A05F0919B059081A1
:1024E00080919C058095892380831092F30310923C
:1024F000F20386EA95E00E94ED028CEA95E00E94E4
:10250000ED0282EB95E00E94ED0288EB95E00E94DF
:10251000ED028EEB95E00C94ED02CF92DF92EF92FC
:10252000FF921092D5041092D40498EEC92E93E035
:10253000D92EE12CF12CC092D604D092D704E0928F
:10254000D804F092D90489E391E09093D304809366
:10255000D20485EC90E09093DF048093DE0484EC59
:1025600090E09093E1048093E00480EC90E09093FD
:10257000E3048093E20481EC90E09093E50480937F
:10258000E40482EC90E09093E7048093E60486EC08
:1025900090E09093E9048093E8041092EB04109289
:1025A000EC041092ED041092EE046EEE73E08EEBEC
:1025B00095E00E94F2026FED73E088EB95E00E94D7
:1025C000F2026EEE73E082EB95E00E94F2026EEE94
:1025D00073E08CEA95E00E94F2026EEE73E086EA08
:1025E00095E00E94F20210928A0510928905C0922D
:1025F0008B05D0928C05E0928D05F0928E0587E5D3
:1026000091E0909388058093870510929E05109223
:102610009D051092A00510929F051092A2051092A0
:10262000A1051092A4051092A3056091A5056E7FE7
:102630006D7F6093A5056695617081E068278AE0EB
:102640000E94D00461E08AE00E941605EDEEF1E000
:10265000E491E0939705E9EDF1E0E491F0E0EE0F0D
:10266000FF1FE554FE4F85919491909399058093B7
:10267000980560E089E00E9416058091A50581FD1E
:1026800004C061E089E00E94D00489E08093930552
:10269000ECEEF1E0E491E0939405E8EDF1E0E491F3
:1026A000F0E0EE0FFF1FEB53FE4F85919491909356
:1026B00096058093950510927205109271058BE432
:1026C00091E09093700580936F0584E0809373058B
:1026D0008FEF8093740583E08093750585E0809388
:1026E000760586E08093770587E08093780588E01B
:1026F0008093790510927A0510927B0510927C05E3
:1027000010927D0510927E0561E08FE695E0FF90C6
:10271000EF90DF90CF900C949908EF920F931F9356
:10272000CF93DF93E80147FD02C034E001C034E1FC
:10273000E42F440FFF0BF7FF03C0F195E195F1097A
:10274000E32E022F2E2FAE010E94ED13CE01DF915A
:10275000CF911F910F91EF900895662777270C94E2
:102760007B151F93FC0199278827BC01E8941191E0
:102770001032E9F3193010F01E30C8F31B3251F05B
:102780001D3249F4689406C00E94D813610F711D70
:10279000811D911D119110531A30B0F33EF49095A4
:1027A0008095709561957F4F8F4F9F4F1F91089532
:1027B000592F482F372F262F660F771F881F991FF5
:1027C000660F771F881F991F620F731F841F951F45
:1027D000660F771F881F991F08954F925F926F921F
:1027E0007F929F92AF92BF92CF92DF92EF92FF9231
:1027F0000F931F93CF93DF93CDB7DEB729970FB613
:10280000F894DEBF0FBECDBF6A01122FB02E2BE3AE
:10281000201720F0FF24F394F00E02C0BCE3FB2E3F
:102820000F2D27E0AE014F5F5F4F0E94D816AC011D
:102830008981982F9970913031F0E1FC06C0E0FE5B
:1028400006C090E205C09DE203C09BE201C090E09B
:10285000EE2DE07183FF3CC0911102C083E001C006
:1028600084E0811718F4212F281B01C020E0E1111A
:102870000BC0F601822F30E2882319F0319381508A
:10288000FBCFC20ED11C20E0992329F0D6019C93E6
:10289000F60131966F01C6010396E2FE0AC03EE4DE
:1028A000D6013C9341E411964C93119712963C93B8
:1028B00006C03EE6F601308341E641833283FC01E7
:1028C000322F40E2332309F442C041933150FACF12
:1028D00082FF44C0911102C083E001C084E08117EF
:1028E00018F4212F281B01C020E0E1110BC0F601D4
:1028F000822F30E2882319F031938150FBCFC20E32
:10290000D11C20E0992329F0D6019C93F601319641
:102910006F01C6010396E2FE0BC039E4D6013C9379
:102920003EE411963C93119736E412963C9307C00F
:1029300039E6F60130833EE6318336E63283FC0128
:10294000322F40E2332319F041933150FBCFFC0189
:10295000E20FF11D10828EEF9FEFB7C0F1E09111F1
:1029600001C0F0E06F2F70E01416150624F49A01F0
:102970002F5F3F4F02C021E030E0260F371FBB2002
:1029800029F06B2D70E06F5F7F4F02C060E070E058
:10299000260F371F612F70E0261737071CF4121B14
:1029A000212F01C020E03E2D387159F4D601322F7D
:1029B00060E2332319F06D933150FBCFC20ED11C6E
:1029C00020E0FF2331F0D6019C93B6016F5F7F4F6B
:1029D0006B01E1110BC0F601922F30E3992319F03E
:1029E00031939150FBCFC20ED11C20E09F2D940F4C
:1029F0003A81782F7071A72E84FF03C0313309F418
:102A00009150191624F4993018F098E001C091E023
:102A1000E42F852F57FF02C0E0E080E06E2F782F73
:102A2000E0E0F0E0AEE29A2E3A01691A71082A015C
:102A3000461A570A0B2D10E01195019511096F3FA9
:102A40008FEF780729F4D6019C92C60101966C019C
:102A50004617570784F0661677066CF47F01E40C7E
:102A6000F51CA1E0B0E0AC0FBD1FEA0EFB1ED701C4
:102A70001196BC9002C090E3B92E61507109319655
:102A8000C60101967C016017710724F0D601BC9243
:102A90006C01D5CF6417750741F4363320F4353314
:102AA00021F4A11002C081E3B82EF601B082F70133
:102AB000822F90E2882319F091938150FBCFF70188
:102AC000E20FF11D108280E090E029960FB6F89495
:102AD000DEBF0FBECDBFDF91CF911F910F91FF9051
:102AE000EF90DF90CF90BF90AF909F907F906F90CE
:102AF0005F904F900895A0E0B0E0E1E8F5E10C941C
:102B00000719EC017B016115710519F0DB018D934B
:102B10009C938E010F5F1F4F7880872D90E00E945D
:102B2000B017892B11F0E801F4CFBDE27B1205C08C
:102B30000F5F1F4F7980C1E008C0EBE27E1204C036
:102B40008E010E5F1F4F7980C0E06801F1E0CF1A5F
:102B5000D10843E050E060E770E0C6010E94B91779
:102B6000892BF1F4680122E0C20ED11C45E050E04F
:102B70006BE670E0C6010E94B917892B21F4680149
:102B800087E0C80ED11CE114F10419F0D701CD92F1
:102B9000DC92C111FFC060E070E080E89FE703C1F4
:102BA00043E050E068E670E0C6010E94B917892B47
:102BB00051F4E114F10409F4F2C00E5F1F4FF70164
:102BC00011830083ECC0680160E070E0CB0100E09D
:102BD00010E0F601D0EDD70DDA3058F52C2F226039
:102BE000622E2C2F2870C2FF05C0211128C00F5F54
:102BF0001F4F25C0222311F001501109A5E0B0E0BC
:102C00009B01AC010E94F8184B015C01880C991CD7
:102C1000AA1CBB1CC501B4016D0F711D811D911D46
:102C20006839A9E97A078A07A9E19A0740F0C660DE
:102C300005C0DE3F51F4C3FD44C0C8606C2EBFEF39
:102C4000CB1ADB0A7080C62DC4CF2D2F2F7D2531E6
:102C5000C1F540814D3211F4C06106C04B3221F004
:102C6000319621E030E006C03296D60111964C91A3
:102C700022E030E0A0EDA40FAA3018F0E21BF30B25
:102C800020C040E050E04038BCE05B075CF49A01B3
:102C9000220F331F220F331F420F531F440F551FA4
:102CA0004A0F511D3196DF0111972C91A0EDA20F13
:102CB000AA3048F3C4FF03C0519541955109040F50
:102CC000151FC1FF07C0E114F10421F03197D701AE
:102CD000ED93FC930E94D617C370C33019F06B01BB
:102CE0007C0106C06B017C01F7FAF094F7F8F094D0
:102CF00020E030E0A901C701B6010E94D117882366
:102D000009F445C017FF06C0119501951109C7E8E0
:102D1000D0E002C0CFE9D0E05E01B8E1AB1AB10863
:102D20004601BE2DAF2D90E2E92EF12C0E151F05A8
:102D300084F0FE012591359145915491B4018B2F7A
:102D40009A2F0E9437184B01B82FA92F0E191F096F
:102D5000EDCF2497F594E794CA15DB0539F76401A4
:102D6000EB2EFA2E8E2D880F8F2D881F8F3F49F066
:102D700020E030E0A901C701B6010E94D1178111FE
:102D800006C082E290E09093C5058093C405C70118
:102D9000B60109C060E070E080E89FEF04C060E029
:102DA00070E080EC9FE7CDB7DEB7EEE00C9423191E
:102DB000283008F027E03327DA01990F311D87FD0D
:102DC000916000966105710539F432602E5F3D9384
:102DD00030E32A95E1F708959F3F30F08038710580
:102DE000610509F03C5F3C5F3D93913008F08068DD
:102DF000911DDF93CF931F930F93FF92EF92192FA3
:102E0000987F9695E92F96959695E90FFF27E350C1
:102E1000FF4F99273327EE24FF24A701E7010590F0
:102E20000894079428F4360FE71EF81E491F511D19
:102E3000660F771F881F991F0694A1F705900794C6
:102E400028F4E70EF81E491F561FC11D770F881F73
:102E5000991F661F0694A1F70590079428F4F80EB1
:102E6000491F561FC71FD11D880F991F661F771F47
:102E70000694A1F70590079420F4490F561FC71F29
:102E8000D81F990F661F771F881F0694A9F7849192
:102E90001095177041F0D695C79557954795F794BB
:102EA000E7941A95C1F7E3EAF0E06894159015915C
:102EB00035916591959105907FE27395E118F10A3E
:102EC000430B560BC90BD009C0F7E10CF11E431F91
:102ED000561FC91FD01D7EF4703311F48A95E6CFBA
:102EE000E894015030F0080F0AF40027021708F4A4
:102EF000202F2395022F7A3328F079E37D932A95AA
:102F0000E9F710C07D932A9589F606949795679501
:102F1000379517951794E118F10A430B560BC90B17
:102F2000D00998F023957E9173957A3308F070E379
:102F30007C932013B8F77E9170617D9330F0839578
:102F400071E37D9370E32A95E1F71124EF90FF90F0
:102F50000F911F91CF91DF91992787FD909508954B
:102F600091110C94A418803219F089508550C8F73B
:102F70000895FB01DC014150504088F08D9181346F
:102F80001CF08B350CF4805E659161341CF06B3560
:102F90000CF4605E861B611171F3990B0895881B18
:102FA000FCCF0E94131808F481E00895E89409C04A
:102FB00097FB3EF490958095709561957F4F8F4F6C
:102FC0009F4F9923A9F0F92F96E9BB279395F69582
:102FD000879577956795B795F111F8CFFAF4BB0F00
:102FE00011F460FF1BC06F5F7F4F8F4F9F4F16C064
:102FF000882311F096E911C0772321F09EE8872FEE
:10300000762F05C0662371F096E8862F70E060E0A9
:103010002AF09A95660F771F881FDAF7880F969522
:10302000879597F90895990F0008550FAA0BE0E8C6
:10303000FEEF16161706E807F907C0F0121613067A
:10304000E407F50798F0621B730B840B950B39F4BA
:103050000A2661F0232B242B252B21F408950A2620
:1030600009F4A140A6958FEF811D811D08950E944E
:103070004A180C94BE180E94B01838F00E94B71875
:1030800020F0952311F00C94A7180C94AD1811247E
:103090000C94F2180E94CF1870F3959FC1F3950F0E
:1030A00050E0551F629FF001729FBB27F00DB11DCC
:1030B000639FAA27F00DB11DAA1F649F6627B00D5C
:1030C000A11D661F829F2227B00DA11D621F739F45
:1030D000B00DA11D621F839FA00D611D221F749F53
:1030E0003327A00D611D231F849F600D211D822F9A
:1030F000762F6A2F11249F5750409AF0F1F08823C1
:103100004AF0EE0FFF1FBB1F661F771F881F9150ED
:103110005040A9F79E3F510580F00C94A7180C94DD
:10312000F2185F3FE4F3983ED4F386957795679560
:10313000B795F795E7959F5FC1F7FE2B880F911D17
:103140009695879597F9089599278827089597F96F
:103150009F6780E870E060E008959FEF80EC08953D
:1031600000240A9416161706180609060895002466
:103170000A9412161306140605060895092E0394E0
:10318000000C11F4882352F0BB0F40F4BF2B11F454
:1031900060FF04C06F5F7F4F8F4F9F4F089557FDB3
:1031A0009058440F551F59F05F3F71F04795880FB5
:1031B00097FB991F61F09F3F79F08795089512164C
:1031C00013061406551FF2CF4695F1DF08C01616F8
:1031D00017061806991FF1CF8695710561050894A9
:1031E0000895E894BB2766277727CB0197F90895C0
:1031F0000E943A19A59F900DB49F900DA49F800D39
:10320000911D112408952F923F924F925F926F92D9
:103210007F928F929F92AF92BF92CF92DF92EF9266
:10322000FF920F931F93CF93DF93CDB7DEB7CA1BE7
:10323000DB0B0FB6F894DEBF0FBECDBF09942A8812
:10324000398848885F846E847D848C849B84AA84BA
:10325000B984C884DF80EE80FD800C811B81AA8147
:10326000B981CE0FD11D0FB6F894DEBF0FBECDBF12
:10327000ED010895A29FB001B39FC001A39F700DFF
:10328000811D1124911DB29F700D811D1124911D6E
:1032900008955058BB27AA270E9461190C94BE18A4
:1032A0000E94B01838F00E94B71820F039F49F3F00
:1032B00019F426F40C94AD180EF4E095E7FB0C9489
:1032C000A718E92F0E94CF1858F3BA17620773079F
:1032D0008407950720F079F4A6F50C94F1180EF404
:1032E000E0950B2EBA2FA02D0B01B90190010C0116
:1032F000CA01A0011124FF27591B99F0593F50F42E
:10330000503E68F11A16F040A22F232F342F442785
:10331000585FF3CF469537952795A795F04053957D
:10332000C9F77EF41F16BA0B620B730B840BBAF04D
:103330009150A1F0FF0FBB1F661F771F881FC2F7B8
:103340000EC0BA0F621F731F841F48F487957795CC
:103350006795B795F7959E3F08F0B0CF9395880F86
:1033600008F09927EE0F9795879508950E94CA193E
:103370000C94BE180E94B71858F00E94B01840F084
:1033800029F45F3F29F00C94A71851110C94F218FE
:103390000C94AD180E94CF1868F39923B1F355230C
:1033A00091F3951B550BBB27AA2762177307840758
:1033B00038F09F5F5F4F220F331F441FAA1FA9F3EE
:1033C00035D00E2E3AF0E0E832D091505040E695DC
:1033D000001CCAF72BD0FE2F29D0660F771F881F3D
:1033E000BB1F261737074807AB07B0E809F0BB0B30
:1033F000802DBF01FF2793585F4F3AF09E3F510544
:1034000078F00C94A7180C94F2185F3FE4F3983E00
:10341000D4F3869577956795B795F7959F5FC9F72C
:10342000880F911D9695879597F90895E1E0660FAD
:10343000771F881FBB1F621773078407BA0720F026
:10344000621B730B840BBA0BEE1F88F7E09508958F
:103450000E94D71888F09F5798F0B92F9927B75135
:10346000B0F0E1F0660F771F881F991F1AF0BA9528
:10347000C9F714C0B13091F00E94F118B1E008957D
:103480000C94F118672F782F8827B85F39F0B93F6F
:10349000CCF3869577956795B395D9F73EF49095DB
:1034A0008095709561957F4F8F4F9F4F08950E9433
:1034B000131808F48FEF089519F416F40C94AD184E
:1034C0000C94A71A0E94D718B8F39923C9F3B6F33E
:1034D0009F57550B87FF0E94B51A0024A0E640EACB
:1034E000900180585695979528F4805C660F771F59
:1034F000881F20F026173707480730F4621B730B2C
:10350000840B202931294A2BA6951794079420254E
:1035100031254A2758F7660F771F881F20F0261796
:103520003707480730F4620B730B840B200D311DF5
:10353000411DA09581F7B901842F9158880F969568
:10354000879508950E941318880B990B08959F3F43
:1035500031F0915020F4879577956795B795880F4E
:10356000911D9695879597F9089591505040660F53
:10357000771F881FD2F7089597FB072E16F4009443
:1035800007D077FD09D00E94111B07FC05D03EF43F
:10359000909581959F4F0895709561957F4F0895FF
:1035A000A1E21A2EAA1BBB1BFD010DC0AA1FBB1F47
:1035B000EE1FFF1FA217B307E407F50720F0A21BB9
:1035C000B30BE40BF50B661F771F881F991F1A9426
:1035D00069F760957095809590959B01AC01BD0150
:1035E000CF010895052E97FB1EF400940E94091B3D
:1035F00057FD07D00E94D01A07FC03D04EF40C945C
:10360000091B50954095309521953F4F4F4F5F4F87
:10361000089590958095709561957F4F8F4F9F4F3E
:103620000895AA1BBB1B51E107C0AA1FBB1FA61709
:10363000B70710F0A61BB70B881F991F5A95A9F75B
:1036400080959095BC01CD010895EE0FFF1F059068
:10365000F491E02D0994CF93DF938230910510F41B
:1036600082E090E0E091C805F091C90520E030E0EB
:10367000C0E0D0E0309711F14081518148175907DF
:10368000C0F04817590761F482819381209719F09F
:103690009B838A832BC09093C9058093C80526C05D
:1036A0002115310519F04217530718F49A01BE018C
:1036B000DF01EF010280F381E02DDCCF2115310520
:1036C00009F1281B390B2430310590F412968D91A5
:1036D0009C9113976115710521F0FB0193838283FF
:1036E00004C09093C9058093C805FD01329644C07B
:1036F000FD01E20FF31F81939193225031092D9325
:103700003C933AC02091C6053091C705232B41F464
:1037100020913101309132013093C7052093C605C5
:1037200020912F01309130012115310541F42DB741
:103730003EB74091330150913401241B350BE09189
:10374000C605F091C705E217F307A0F42E1B3F0B47
:103750002817390778F0AC014E5F5F4F2417350703
:1037600048F04E0F5F1F5093C7054093C6058193E5
:10377000919302C0E0E0F0E0CF01DF91CF91089596
:103780000F931F93CF93DF93009709F48CC0FC0134
:103790003297138212820091C8051091C905011554
:1037A000110581F420813181820F931F2091C6057C
:1037B0003091C7052817390779F5F093C705E093CD
:1037C000C60571C0D80140E050E0AE17BF0750F405
:1037D00012962D913C911397AD012115310509F1F8
:1037E000D901F3CF9D01DA01338322836081718196
:1037F000860F971F8217930769F4EC01288139819E
:10380000260F371F2E5F3F4F318320838A819B8194
:1038100093838283452B29F4F093C905E093C8056F
:1038200042C01396FC93EE931297ED014991599182
:103830009E01240F351FE217F30771F480819181F7
:10384000840F951F029611969C938E93828193818B
:1038500013969C938E931297E0E0F0E0D8011296B5
:103860008D919C911397009719F0F8018C01F6CF78
:103870008D919C9198012E5F3F4F820F931F209155
:10388000C6053091C7052817390769F4309729F420
:103890001092C9051092C80502C0138212821093BB
:1038A000C7050093C605DF91CF911F910F91089531
:1038B000A0E0B0E0EEE5FCE10C940719EC01009704
:1038C00021F4CB010E942B1BB8C0FC01E60FF71FAF
:1038D0009C0122503109E217F30708F4ACC0D9016A
:1038E0000D911C91119706171707B0F005301105BF
:1038F00008F49FC0C80104978617970708F499C079
:1039000002501109061B170B019311936D937C93C1
:10391000CF010E94C01B8DC05B01A01AB10A4C01EF
:10392000800E911EA091C805B091C90540E050E0FD
:10393000E12CF12C109709F44AC0A815B905D1F56E
:103940006D907C901197630182E0C80ED11CCA145F
:10395000DB0480F1A3014A195B096A0182E0C80E09
:10396000D11C1296BC9012971396AC91B5E0CB1671
:10397000D10440F0B282A38351834083D9016D9377
:103980007C930AC00E5F1F4FC301800F911FF90186
:1039900091838083EB2DFA2FE114F10431F0D701EC
:1039A0001396FC93EE93129744C0F093C905E093ED
:1039B000C8053FC08D919C9111974817590708F48D
:1039C000AC017D0112960D90BC91A02DB3CF8091DA
:1039D000C6059091C70588159905E1F44617570764
:1039E000C8F480912F0190913001009741F48DB778
:1039F0009EB74091330150913401841B950BE81719
:103A0000F907C8F4F093C705E093C605F90171837F
:103A100060830FC0CB010E942B1B7C01009759F0E3
:103A2000A801BE010E94271DCE010E94C01BC70134
:103A300004C0CE0102C080E090E0CDB7DEB7EEE07A
:103A40000C94231981E090E0F8940C945C1DFB0128
:103A5000DC0102C001900D9241505040D8F708950A
:103A6000FC018191861721F08823D9F799270895C1
:103A70003197CF010895FB01DC0101900D920020E8
:103A8000E1F70895FB0151915523A9F0BF01DC0135
:103A90004D9145174111E1F759F4CD0101900020F6
:103AA00049F04D9140154111C9F3FB014111EFCF90
:103AB00081E090E00197089510E0CDEFD0E004C0E0
:103AC000FE010E94251B2196CE3FD107C9F7F8942D
:023AD000FFCF26
:103AD20002040E0404040E0002041F101E101F0034
:103AE20002040E111F111100050A0E111F111100FF
:103AF200050A0E010F110F000100009041DC0000C9
:103B020000CA05800000000000680B3B012108AFDD
:103B12000B52083008440800000000DC063B01326A
:103B220002310200000000A4013B013202A301F8AD
:103B32000110028B0156657273C3A36F20302E37BA
:103B4200004C696761646F004441444F533A7B20E3
:103B520022636F7272656E7465223A20002C2022F5
:103B6200706F74656E636961223A2000207D005493
:103B72003A004441444F533A207B2274656E73618C
:103B82006F223A200043414C494252413A0044419B
:103B9200444F533A207B2263616C69627261223A1C
:103BA2002000454153544552454747004441444F44
:103BB200533A7B2272756E6E696E67223A20747276
:103BC20075657D003130302520415455414C495AAC
:103BD20041444F00C389205255494D20444520415C
:103BE200545552415200534D4350205649524F555D
:103BF200204D4F444100544F444F204D554E444FA9
:103C02000051554552205553415200434F4D2041DA
:103C1200004E4F53534120455155495045004E499E
:103C22004E4755C3894D20424154450044452046E4
:103C320052454E544500534D435020C389204E45B2
:103C420052564F534F004EC3834F2044C3812043EB
:103C520048414E434500414F20434F4E434F52523D
:103C6200454E5445005345204C4947412041C38DA0
:103C7200204D414E4F00455343555445204F20514E
:103C8200554520455500564F552044495A45520046
:103C92005155454D20464543484100434F4D205321
:103CA2004D43500053454D50524520564149004620
:103CB2004F5254414C4543455200504F5251554585
:103CC200205455444F0051554520C38920424F4D41
:103CD20000412047454E5445205245504554450029
:103CE200C38920504F52204953534F00515545200C
:103CF200455520464543484F00434F4D20412045FE
:103D02005155495045002D53414D504C45532D00BE
:103D1200494E434F4D505245454E53C38D5645492A
:103D2200530049503F0049503A0049503A20202060
:103D320020202020202020002C2022706F74656E0D
:103D4200636961223A00436F72722E2841293A2038
:103D520000506F742E202857293A20006E616E00A1
:103D6200696E66006F76660054414C490054C38107
:103D7200204C494741444F00515545204EC3834F83
:103D820020C38920505241005155414C5155455252
:103D920020554D00534D435020415455414C495AF2
:103DA20041444F00C389204F20302E372E31002846
:103DB200636F6E656374616E646F29000D0A0000A3
:107E0000112484B714BE81FFF0D085E080938100F7
:107E100082E08093C00088E18093C10086E0809377
:107E2000C20080E18093C4008EE0C9D0259A86E02C
:107E300020E33CEF91E0309385002093840096BBD3
:107E4000B09BFECF1D9AA8958150A9F7CC24DD24C4
:107E500088248394B5E0AB2EA1E19A2EF3E0BF2EE7
:107E6000A2D0813461F49FD0082FAFD0023811F036
:107E7000013811F484E001C083E08DD089C08234E0
:107E800011F484E103C0853419F485E0A6D080C0E4
:107E9000853579F488D0E82EFF2485D0082F10E0AE
:107EA000102F00270E291F29000F111F8ED06801E7
:107EB0006FC0863521F484E090D080E0DECF843638
:107EC00009F040C070D06FD0082F6DD080E0C81688
:107ED00080E7D80618F4F601B7BEE895C0E0D1E017
:107EE00062D089930C17E1F7F0E0CF16F0E7DF06D8
:107EF00018F0F601B7BEE89568D007B600FCFDCFD4
:107F0000A601A0E0B1E02C9130E011968C91119780
:107F100090E0982F8827822B932B1296FA010C0160
:107F200087BEE89511244E5F5F4FF1E0A038BF0790
:107F300051F7F601A7BEE89507B600FCFDCF97BE46
:107F4000E89526C08437B1F42ED02DD0F82E2BD052
:107F50003CD0F601EF2C8F010F5F1F4F84911BD097
:107F6000EA94F801C1F70894C11CD11CFA94CF0C13
:107F7000D11C0EC0853739F428D08EE10CD085E9AC
:107F80000AD08FE07ACF813511F488E018D01DD067
:107F900080E101D065CF982F8091C00085FFFCCF94
:107FA0009093C60008958091C00087FFFCCF809118
:107FB000C00084FD01C0A8958091C6000895E0E648
:107FC000F0E098E1908380830895EDDF803219F02E
:107FD00088E0F5DFFFCF84E1DECF1F93182FE3DFCA
:107FE0001150E9F7F2DF1F91089580E0E8DFEE27F6
:047FF000FF270994CA
:027FFE00040479
:0400000300007E007B
:00000001FF
